{
  "address": "0xe20F737ad731978B923f1728471A6AB02f94657e",
  "abi": [
    {
      "inputs": [
        {
          "internalType": "bytes",
          "name": "",
          "type": "bytes"
        },
        {
          "internalType": "bytes",
          "name": "",
          "type": "bytes"
        }
      ],
      "name": "verify",
      "outputs": [
        {
          "internalType": "bool",
          "name": "",
          "type": "bool"
        }
      ],
      "stateMutability": "pure",
      "type": "function"
    }
  ],
  "transactionHash": "0xa44573294f60cb27c8b94b67a4138214132f96b1e49e9afbaa9fe36e5af34606",
  "args": [],
  "solcInputHash": "189d66a3abb4fd07726a37f3a36ba4f8",
  "bytecode": "0x608060405234801561001057600080fd5b50610132806100206000396000f3fe6080604052348015600f57600080fd5b506004361060285760003560e01c8063f7e83aee14602d575b600080fd5b60426038366004609a565b6001949350505050565b604051901515815260200160405180910390f35b60008083601f8401126066578182fd5b50813567ffffffffffffffff811115607c578182fd5b602083019150836020828501011115609357600080fd5b9250929050565b6000806000806040858703121560ae578384fd5b843567ffffffffffffffff8082111560c4578586fd5b60ce888389016056565b9096509450602087013591508082111560e5578384fd5b5060f0878288016056565b9598949750955050505056fea264697066735822122041ceb00124643679e016d6d16621a8b6506a42fb1e1d12c87aa9fc7f504bfb4e64736f6c63430008040033",
  "devdoc": {
    "details": "Implements a dummy DNSSEC digest that approves all hashes, for testing.",
    "kind": "dev",
    "methods": {},
    "version": 1
  },
  "userdoc": {
    "kind": "user",
    "methods": {},
    "version": 1
  },
  "storageLayout": {
    "storage": [],
    "types": null
  }
}