{
  "address": "0x9777414Bfdd9dF0eb5906e9aC1c8FC0bB0AfA412",
  "abi": [
    {
      "inputs": [
        {
          "internalType": "contract BaseRegistrarImplementation",
          "name": "_base",
          "type": "address"
        },
        {
          "internalType": "contract PriceOracle",
          "name": "_prices",
          "type": "address"
        },
        {
          "internalType": "uint256",
          "name": "_minCommitmentAge",
          "type": "uint256"
        },
        {
          "internalType": "uint256",
          "name": "_maxCommitmentAge",
          "type": "uint256"
        }
      ],
      "stateMutability": "nonpayable",
      "type": "constructor"
    },
    {
      "anonymous": false,
      "inputs": [
        {
          "indexed": false,
          "internalType": "string",
          "name": "name",
          "type": "string"
        },
        {
          "indexed": true,
          "internalType": "bytes32",
          "name": "label",
          "type": "bytes32"
        },
        {
          "indexed": true,
          "internalType": "address",
          "name": "owner",
          "type": "address"
        },
        {
          "indexed": false,
          "internalType": "uint256",
          "name": "cost",
          "type": "uint256"
        },
        {
          "indexed": false,
          "internalType": "uint256",
          "name": "expires",
          "type": "uint256"
        }
      ],
      "name": "NameRegistered",
      "type": "event"
    },
    {
      "anonymous": false,
      "inputs": [
        {
          "indexed": false,
          "internalType": "string",
          "name": "name",
          "type": "string"
        },
        {
          "indexed": true,
          "internalType": "bytes32",
          "name": "label",
          "type": "bytes32"
        },
        {
          "indexed": false,
          "internalType": "uint256",
          "name": "cost",
          "type": "uint256"
        },
        {
          "indexed": false,
          "internalType": "uint256",
          "name": "expires",
          "type": "uint256"
        }
      ],
      "name": "NameRenewed",
      "type": "event"
    },
    {
      "anonymous": false,
      "inputs": [
        {
          "indexed": true,
          "internalType": "address",
          "name": "oracle",
          "type": "address"
        }
      ],
      "name": "NewPriceOracle",
      "type": "event"
    },
    {
      "anonymous": false,
      "inputs": [
        {
          "indexed": true,
          "internalType": "address",
          "name": "previousOwner",
          "type": "address"
        },
        {
          "indexed": true,
          "internalType": "address",
          "name": "newOwner",
          "type": "address"
        }
      ],
      "name": "OwnershipTransferred",
      "type": "event"
    },
    {
      "inputs": [],
      "name": "MIN_REGISTRATION_DURATION",
      "outputs": [
        {
          "internalType": "uint256",
          "name": "",
          "type": "uint256"
        }
      ],
      "stateMutability": "view",
      "type": "function"
    },
    {
      "inputs": [
        {
          "internalType": "string",
          "name": "name",
          "type": "string"
        }
      ],
      "name": "available",
      "outputs": [
        {
          "internalType": "bool",
          "name": "",
          "type": "bool"
        }
      ],
      "stateMutability": "view",
      "type": "function"
    },
    {
      "inputs": [
        {
          "internalType": "bytes32",
          "name": "commitment",
          "type": "bytes32"
        }
      ],
      "name": "commit",
      "outputs": [],
      "stateMutability": "nonpayable",
      "type": "function"
    },
    {
      "inputs": [
        {
          "internalType": "bytes32",
          "name": "",
          "type": "bytes32"
        }
      ],
      "name": "commitments",
      "outputs": [
        {
          "internalType": "uint256",
          "name": "",
          "type": "uint256"
        }
      ],
      "stateMutability": "view",
      "type": "function"
    },
    {
      "inputs": [
        {
          "internalType": "string",
          "name": "name",
          "type": "string"
        },
        {
          "internalType": "address",
          "name": "owner",
          "type": "address"
        },
        {
          "internalType": "bytes32",
          "name": "secret",
          "type": "bytes32"
        }
      ],
      "name": "makeCommitment",
      "outputs": [
        {
          "internalType": "bytes32",
          "name": "",
          "type": "bytes32"
        }
      ],
      "stateMutability": "pure",
      "type": "function"
    },
    {
      "inputs": [
        {
          "internalType": "string",
          "name": "name",
          "type": "string"
        },
        {
          "internalType": "address",
          "name": "owner",
          "type": "address"
        },
        {
          "internalType": "bytes32",
          "name": "secret",
          "type": "bytes32"
        },
        {
          "internalType": "address",
          "name": "resolver",
          "type": "address"
        },
        {
          "internalType": "address",
          "name": "addr",
          "type": "address"
        }
      ],
      "name": "makeCommitmentWithConfig",
      "outputs": [
        {
          "internalType": "bytes32",
          "name": "",
          "type": "bytes32"
        }
      ],
      "stateMutability": "pure",
      "type": "function"
    },
    {
      "inputs": [],
      "name": "maxCommitmentAge",
      "outputs": [
        {
          "internalType": "uint256",
          "name": "",
          "type": "uint256"
        }
      ],
      "stateMutability": "view",
      "type": "function"
    },
    {
      "inputs": [],
      "name": "minCommitmentAge",
      "outputs": [
        {
          "internalType": "uint256",
          "name": "",
          "type": "uint256"
        }
      ],
      "stateMutability": "view",
      "type": "function"
    },
    {
      "inputs": [],
      "name": "owner",
      "outputs": [
        {
          "internalType": "address",
          "name": "",
          "type": "address"
        }
      ],
      "stateMutability": "view",
      "type": "function"
    },
    {
      "inputs": [
        {
          "internalType": "string",
          "name": "name",
          "type": "string"
        },
        {
          "internalType": "address",
          "name": "owner",
          "type": "address"
        },
        {
          "internalType": "uint256",
          "name": "duration",
          "type": "uint256"
        },
        {
          "internalType": "bytes32",
          "name": "secret",
          "type": "bytes32"
        }
      ],
      "name": "register",
      "outputs": [],
      "stateMutability": "payable",
      "type": "function"
    },
    {
      "inputs": [
        {
          "internalType": "string",
          "name": "name",
          "type": "string"
        },
        {
          "internalType": "address",
          "name": "owner",
          "type": "address"
        },
        {
          "internalType": "uint256",
          "name": "duration",
          "type": "uint256"
        },
        {
          "internalType": "bytes32",
          "name": "secret",
          "type": "bytes32"
        },
        {
          "internalType": "address",
          "name": "resolver",
          "type": "address"
        },
        {
          "internalType": "address",
          "name": "addr",
          "type": "address"
        }
      ],
      "name": "registerWithConfig",
      "outputs": [],
      "stateMutability": "payable",
      "type": "function"
    },
    {
      "inputs": [
        {
          "internalType": "string",
          "name": "name",
          "type": "string"
        },
        {
          "internalType": "uint256",
          "name": "duration",
          "type": "uint256"
        }
      ],
      "name": "renew",
      "outputs": [],
      "stateMutability": "payable",
      "type": "function"
    },
    {
      "inputs": [],
      "name": "renounceOwnership",
      "outputs": [],
      "stateMutability": "nonpayable",
      "type": "function"
    },
    {
      "inputs": [
        {
          "internalType": "string",
          "name": "name",
          "type": "string"
        },
        {
          "internalType": "uint256",
          "name": "duration",
          "type": "uint256"
        }
      ],
      "name": "rentPrice",
      "outputs": [
        {
          "internalType": "uint256",
          "name": "",
          "type": "uint256"
        }
      ],
      "stateMutability": "view",
      "type": "function"
    },
    {
      "inputs": [
        {
          "internalType": "uint256",
          "name": "_minCommitmentAge",
          "type": "uint256"
        },
        {
          "internalType": "uint256",
          "name": "_maxCommitmentAge",
          "type": "uint256"
        }
      ],
      "name": "setCommitmentAges",
      "outputs": [],
      "stateMutability": "nonpayable",
      "type": "function"
    },
    {
      "inputs": [
        {
          "internalType": "contract PriceOracle",
          "name": "_prices",
          "type": "address"
        }
      ],
      "name": "setPriceOracle",
      "outputs": [],
      "stateMutability": "nonpayable",
      "type": "function"
    },
    {
      "inputs": [
        {
          "internalType": "bytes4",
          "name": "interfaceID",
          "type": "bytes4"
        }
      ],
      "name": "supportsInterface",
      "outputs": [
        {
          "internalType": "bool",
          "name": "",
          "type": "bool"
        }
      ],
      "stateMutability": "pure",
      "type": "function"
    },
    {
      "inputs": [
        {
          "internalType": "address",
          "name": "newOwner",
          "type": "address"
        }
      ],
      "name": "transferOwnership",
      "outputs": [],
      "stateMutability": "nonpayable",
      "type": "function"
    },
    {
      "inputs": [
        {
          "internalType": "string",
          "name": "name",
          "type": "string"
        }
      ],
      "name": "valid",
      "outputs": [
        {
          "internalType": "bool",
          "name": "",
          "type": "bool"
        }
      ],
      "stateMutability": "pure",
      "type": "function"
    },
    {
      "inputs": [],
      "name": "withdraw",
      "outputs": [],
      "stateMutability": "nonpayable",
      "type": "function"
    }
  ],
  "transactionHash": "0x6155092b42b3c82c36a417befa94669a8bad952776401f5490687c7f3ebaeaa9",
  "args": [
    "0x99A3487Ac740A49Cb2780bEB002DcF93682C248E",
    "0xA2818D4350358E53B83aB12FEbC9f3aA0DC4Cd5A",
    600,
    86400
  ],
  "solcInputHash": "189d66a3abb4fd07726a37f3a36ba4f8",
  "bytecode": "0x60806040523480156200001157600080fd5b5060405162001f6b38038062001f6b8339810160408190526200003491620000db565b6200003f336200008b565b8181116200004c57600080fd5b600180546001600160a01b039586166001600160a01b031991821617909155600280549490951693169290921790925560039190915560045562000140565b600080546001600160a01b038381166001600160a01b0319831681178455604051919092169283917f8be0079c531659141344cd1fd0a4f28419497f9722a3daafe3b4186f6b6457e09190a35050565b60008060008060808587031215620000f1578384fd5b8451620000fe8162000127565b6020860151909450620001118162000127565b6040860151606090960151949790965092505050565b6001600160a01b03811681146200013d57600080fd5b50565b611e1b80620001506000396000f3fe60806040526004361061015f5760003560e01c80638d839ffe116100c0578063ce1e09c011610074578063f2fde38b11610059578063f2fde38b1461037e578063f49826be1461039e578063f7a16963146103be57600080fd5b8063ce1e09c014610348578063f14fcbc81461035e57600080fd5b80639791c097116100a55780639791c097146102f5578063acf1a84114610315578063aeb8ce9b1461032857600080fd5b80638d839ffe146102aa5780638da5cb5b146102c057600080fd5b80637e3244791161011757806383e7f6ff116100fc57806383e7f6ff1461026057806385f6d155146102805780638a95b09f1461029357600080fd5b80637e32447914610213578063839df9451461023357600080fd5b80633d86c52f116101485780633d86c52f146101b0578063530e784f146101de578063715018a6146101fe57600080fd5b806301ffc9a7146101645780633ccfd60b14610199575b600080fd5b34801561017057600080fd5b5061018461017f36600461190f565b6103d1565b60405190151581526020015b60405180910390f35b3480156101a557600080fd5b506101ae6104b6565b005b3480156101bc57600080fd5b506101d06101cb366004611aa5565b61056b565b604051908152602001610190565b3480156101ea57600080fd5b506101ae6101f93660046118a3565b6106b0565b34801561020a57600080fd5b506101ae6107a0565b34801561021f57600080fd5b506101ae61022e366004611bee565b61082d565b34801561023f57600080fd5b506101d061024e3660046118df565b60056020526000908152604090205481565b34801561026c57600080fd5b506101d061027b366004611bab565b6108b9565b6101ae61028e36600461196b565b6109ec565b34801561029f57600080fd5b506101d06224ea0081565b3480156102b657600080fd5b506101d060035481565b3480156102cc57600080fd5b5060005460405173ffffffffffffffffffffffffffffffffffffffff9091168152602001610190565b34801561030157600080fd5b50610184610310366004611a1a565b610a37565b6101ae6103233660046119d0565b610a4c565b34801561033457600080fd5b50610184610343366004611a1a565b610bef565b34801561035457600080fd5b506101d060045481565b34801561036a57600080fd5b506101ae6103793660046118df565b610cb2565b34801561038a57600080fd5b506101ae6103993660046118a3565b610cec565b3480156103aa57600080fd5b506101d06103b9366004611a4d565b610e19565b6101ae6103cc366004611b24565b610e29565b60007fffffffff0000000000000000000000000000000000000000000000000000000082167f01ffc9a700000000000000000000000000000000000000000000000000000000148061046457507fffffffff0000000000000000000000000000000000000000000000000000000082167f018fac0600000000000000000000000000000000000000000000000000000000145b806104b057507fffffffff0000000000000000000000000000000000000000000000000000000082167fca27ac4c00000000000000000000000000000000000000000000000000000000145b92915050565b60005473ffffffffffffffffffffffffffffffffffffffff16331461053c576040517f08c379a000000000000000000000000000000000000000000000000000000000815260206004820181905260248201527f4f776e61626c653a2063616c6c6572206973206e6f7420746865206f776e657260448201526064015b60405180910390fd5b60405133904780156108fc02916000818181858888f19350505050158015610568573d6000803e3d6000fd5b50565b8451602086012060009073ffffffffffffffffffffffffffffffffffffffff84161580156105ad575073ffffffffffffffffffffffffffffffffffffffff8316155b156106135760408051602081018390527fffffffffffffffffffffffffffffffffffffffff000000000000000000000000606089901b169181019190915260548101869052607401604051602081830303815290604052805190602001209150506106a7565b73ffffffffffffffffffffffffffffffffffffffff841661063357600080fd5b60408051602081018390527fffffffffffffffffffffffffffffffffffffffff000000000000000000000000606089811b82169383019390935286831b811660548301529185901b9091166068820152607c8101869052609c01604051602081830303815290604052805190602001209150505b95945050505050565b60005473ffffffffffffffffffffffffffffffffffffffff163314610731576040517f08c379a000000000000000000000000000000000000000000000000000000000815260206004820181905260248201527f4f776e61626c653a2063616c6c6572206973206e6f7420746865206f776e65726044820152606401610533565b600280547fffffffffffffffffffffffff00000000000000000000000000000000000000001673ffffffffffffffffffffffffffffffffffffffff83169081179091556040517ff261845a790fe29bbd6631e2ca4a5bdc83e6eed7c3271d9590d97287e00e912390600090a250565b60005473ffffffffffffffffffffffffffffffffffffffff163314610821576040517f08c379a000000000000000000000000000000000000000000000000000000000815260206004820181905260248201527f4f776e61626c653a2063616c6c6572206973206e6f7420746865206f776e65726044820152606401610533565b61082b6000611476565b565b60005473ffffffffffffffffffffffffffffffffffffffff1633146108ae576040517f08c379a000000000000000000000000000000000000000000000000000000000815260206004820181905260248201527f4f776e61626c653a2063616c6c6572206973206e6f7420746865206f776e65726044820152606401610533565b600391909155600455565b815160208301206002546001546040517fd6e4fa86000000000000000000000000000000000000000000000000000000008152600481018490526000939273ffffffffffffffffffffffffffffffffffffffff908116926350e9a7159288929091169063d6e4fa869060240160206040518083038186803b15801561093d57600080fd5b505afa158015610951573d6000803e3d6000fd5b505050506040513d601f19601f8201168201806040525081019061097591906118f7565b866040518463ffffffff1660e01b815260040161099493929190611c7c565b60206040518083038186803b1580156109ac57600080fd5b505afa1580156109c0573d6000803e3d6000fd5b505050506040513d601f19601f820116820180604052508101906109e491906118f7565b949350505050565b610a3085858080601f016020809104026020016040519081016040528093929190818152602001838380828437600092018290525088935087925086915080610e29565b5050505050565b60006003610a44836114eb565b101592915050565b6000610a8f84848080601f0160208091040260200160405190810160405280939291908181526020018383808284376000920191909152508692506108b9915050565b905080341015610a9e57600080fd5b60008484604051610ab0929190611c0f565b6040519081900381206001547fc475abff000000000000000000000000000000000000000000000000000000008352600483018290526024830186905290925060009173ffffffffffffffffffffffffffffffffffffffff9091169063c475abff90604401602060405180830381600087803b158015610b2f57600080fd5b505af1158015610b43573d6000803e3d6000fd5b505050506040513d601f19601f82011682018060405250810190610b6791906118f7565b905082341115610ba957336108fc610b7f8534611d15565b6040518115909202916000818181858888f19350505050158015610ba7573d6000803e3d6000fd5b505b817f3da24c024582931cfaf8267d8ed24d13a82a8068d5bd337d30ec45cea4e506ae87878685604051610bdf9493929190611c1f565b60405180910390a2505050505050565b80516020820120600090610c0283610a37565b8015610cab57506001546040517f96e494e80000000000000000000000000000000000000000000000000000000081526004810183905273ffffffffffffffffffffffffffffffffffffffff909116906396e494e89060240160206040518083038186803b158015610c7357600080fd5b505afa158015610c87573d6000803e3d6000fd5b505050506040513d601f19601f82011682018060405250810190610cab91906118bf565b9392505050565b6004546000828152600560205260409020544291610ccf91611cfd565b10610cd957600080fd5b6000908152600560205260409020429055565b60005473ffffffffffffffffffffffffffffffffffffffff163314610d6d576040517f08c379a000000000000000000000000000000000000000000000000000000000815260206004820181905260248201527f4f776e61626c653a2063616c6c6572206973206e6f7420746865206f776e65726044820152606401610533565b73ffffffffffffffffffffffffffffffffffffffff8116610e10576040517f08c379a000000000000000000000000000000000000000000000000000000000815260206004820152602660248201527f4f776e61626c653a206e6577206f776e657220697320746865207a65726f206160448201527f64647265737300000000000000000000000000000000000000000000000000006064820152608401610533565b61056881611476565b60006109e484848460008061056b565b6000610e38878786868661056b565b90506000610e47888784611719565b885160208a012090915080600073ffffffffffffffffffffffffffffffffffffffff8716156112ff576001546040517ffca247ac00000000000000000000000000000000000000000000000000000000815260048101849052306024820152604481018b905273ffffffffffffffffffffffffffffffffffffffff9091169063fca247ac90606401602060405180830381600087803b158015610ee957600080fd5b505af1158015610efd573d6000803e3d6000fd5b505050506040513d601f19601f82011682018060405250810190610f2191906118f7565b90506000600160009054906101000a900473ffffffffffffffffffffffffffffffffffffffff1673ffffffffffffffffffffffffffffffffffffffff1663ddf7fcb06040518163ffffffff1660e01b815260040160206040518083038186803b158015610f8d57600080fd5b505afa158015610fa1573d6000803e3d6000fd5b505050506040513d601f19601f82011682018060405250810190610fc591906118f7565b6040805160208101929092528101859052606001604080517fffffffffffffffffffffffffffffffffffffffffffffffffffffffffffffffe081840301815282825280516020918201206001547f3f15457f000000000000000000000000000000000000000000000000000000008552925190945073ffffffffffffffffffffffffffffffffffffffff90921692633f15457f9260048083019392829003018186803b15801561107457600080fd5b505afa158015611088573d6000803e3d6000fd5b505050506040513d601f19601f820116820180604052508101906110ac919061194f565b6040517f1896f70a0000000000000000000000000000000000000000000000000000000081526004810183905273ffffffffffffffffffffffffffffffffffffffff8a811660248301529190911690631896f70a90604401600060405180830381600087803b15801561111e57600080fd5b505af1158015611132573d6000803e3d6000fd5b5050505073ffffffffffffffffffffffffffffffffffffffff8716156111db576040517fd5fa2b000000000000000000000000000000000000000000000000000000000081526004810182905273ffffffffffffffffffffffffffffffffffffffff888116602483015289169063d5fa2b0090604401600060405180830381600087803b1580156111c257600080fd5b505af11580156111d6573d6000803e3d6000fd5b505050505b6001546040517f28ed4f6c0000000000000000000000000000000000000000000000000000000081526004810185905273ffffffffffffffffffffffffffffffffffffffff8d81166024830152909116906328ed4f6c90604401600060405180830381600087803b15801561124f57600080fd5b505af1158015611263573d6000803e3d6000fd5b50506001546040517f23b872dd00000000000000000000000000000000000000000000000000000000815230600482015273ffffffffffffffffffffffffffffffffffffffff8f811660248301526044820188905290911692506323b872dd9150606401600060405180830381600087803b1580156112e157600080fd5b505af11580156112f5573d6000803e3d6000fd5b50505050506113d6565b73ffffffffffffffffffffffffffffffffffffffff86161561132057600080fd5b6001546040517ffca247ac0000000000000000000000000000000000000000000000000000000081526004810184905273ffffffffffffffffffffffffffffffffffffffff8c81166024830152604482018c90529091169063fca247ac90606401602060405180830381600087803b15801561139b57600080fd5b505af11580156113af573d6000803e3d6000fd5b505050506040513d601f19601f820116820180604052508101906113d391906118f7565b90505b8973ffffffffffffffffffffffffffffffffffffffff16837fca6abbe9d7f11422cb6ca7629fbf6fe9efb1c621f71ce8f02b9f2a230097404f8d878560405161142193929190611c7c565b60405180910390a38334111561146957336108fc61143f8634611d15565b6040518115909202916000818181858888f19350505050158015611467573d6000803e3d6000fd5b505b5050505050505050505050565b6000805473ffffffffffffffffffffffffffffffffffffffff8381167fffffffffffffffffffffffff0000000000000000000000000000000000000000831681178455604051919092169283917f8be0079c531659141344cd1fd0a4f28419497f9722a3daafe3b4186f6b6457e09190a35050565b8051600090819081905b80821015611710576000858381518110611538577f4e487b7100000000000000000000000000000000000000000000000000000000600052603260045260246000fd5b01602001517fff000000000000000000000000000000000000000000000000000000000000001690507f800000000000000000000000000000000000000000000000000000000000000081101561159b57611594600184611cfd565b92506116fd565b7fe0000000000000000000000000000000000000000000000000000000000000007fff00000000000000000000000000000000000000000000000000000000000000821610156115f057611594600284611cfd565b7ff0000000000000000000000000000000000000000000000000000000000000007fff000000000000000000000000000000000000000000000000000000000000008216101561164557611594600384611cfd565b7ff8000000000000000000000000000000000000000000000000000000000000007fff000000000000000000000000000000000000000000000000000000000000008216101561169a57611594600484611cfd565b7ffc000000000000000000000000000000000000000000000000000000000000007fff00000000000000000000000000000000000000000000000000000000000000821610156116ef57611594600584611cfd565b6116fa600684611cfd565b92505b508261170881611d2c565b9350506114f5565b50909392505050565b600354600082815260056020526040812054909142916117399190611cfd565b111561174457600080fd5b600454600083815260056020526040902054429161176191611cfd565b1161176b57600080fd5b61177484610bef565b61177d57600080fd5b600082815260056020526040812081905561179885856108b9565b90506224ea008410156117aa57600080fd5b803410156109e457600080fd5b60008083601f8401126117c8578182fd5b50813567ffffffffffffffff8111156117df578182fd5b6020830191508360208285010111156117f757600080fd5b9250929050565b600082601f83011261180e578081fd5b813567ffffffffffffffff8082111561182957611829611d94565b604051601f83017fffffffffffffffffffffffffffffffffffffffffffffffffffffffffffffffe0908116603f0116810190828211818310171561186f5761186f611d94565b81604052838152866020858801011115611887578485fd5b8360208701602083013792830160200193909352509392505050565b6000602082840312156118b4578081fd5b8135610cab81611dc3565b6000602082840312156118d0578081fd5b81518015158114610cab578182fd5b6000602082840312156118f0578081fd5b5035919050565b600060208284031215611908578081fd5b5051919050565b600060208284031215611920578081fd5b81357fffffffff0000000000000000000000000000000000000000000000000000000081168114610cab578182fd5b600060208284031215611960578081fd5b8151610cab81611dc3565b600080600080600060808688031215611982578081fd5b853567ffffffffffffffff811115611998578182fd5b6119a4888289016117b7565b90965094505060208601356119b881611dc3565b94979396509394604081013594506060013592915050565b6000806000604084860312156119e4578283fd5b833567ffffffffffffffff8111156119fa578384fd5b611a06868287016117b7565b909790965060209590950135949350505050565b600060208284031215611a2b578081fd5b813567ffffffffffffffff811115611a41578182fd5b6109e4848285016117fe565b600080600060608486031215611a61578283fd5b833567ffffffffffffffff811115611a77578384fd5b611a83868287016117fe565b9350506020840135611a9481611dc3565b929592945050506040919091013590565b600080600080600060a08688031215611abc578081fd5b853567ffffffffffffffff811115611ad2578182fd5b611ade888289016117fe565b9550506020860135611aef81611dc3565b9350604086013592506060860135611b0681611dc3565b91506080860135611b1681611dc3565b809150509295509295909350565b60008060008060008060c08789031215611b3c578384fd5b863567ffffffffffffffff811115611b52578485fd5b611b5e89828a016117fe565b9650506020870135611b6f81611dc3565b945060408701359350606087013592506080870135611b8d81611dc3565b915060a0870135611b9d81611dc3565b809150509295509295509295565b60008060408385031215611bbd578182fd5b823567ffffffffffffffff811115611bd3578283fd5b611bdf858286016117fe565b95602094909401359450505050565b60008060408385031215611c00578182fd5b50508035926020909101359150565b8183823760009101908152919050565b60608152836060820152838560808301376000806080868401015260807fffffffffffffffffffffffffffffffffffffffffffffffffffffffffffffffe0601f870116830101905083602083015282604083015295945050505050565b6060815260008451806060840152815b81811015611ca95760208188018101516080868401015201611c8c565b81811115611cba5782608083860101525b5060807fffffffffffffffffffffffffffffffffffffffffffffffffffffffffffffffe0601f830116840101915050836020830152826040830152949350505050565b60008219821115611d1057611d10611d65565b500190565b600082821015611d2757611d27611d65565b500390565b60007fffffffffffffffffffffffffffffffffffffffffffffffffffffffffffffffff821415611d5e57611d5e611d65565b5060010190565b7f4e487b7100000000000000000000000000000000000000000000000000000000600052601160045260246000fd5b7f4e487b7100000000000000000000000000000000000000000000000000000000600052604160045260246000fd5b73ffffffffffffffffffffffffffffffffffffffff8116811461056857600080fdfea26469706673582212200705375bb3cd7e624004d365f356d3b56546d60ecf0e5672403e53489533e67b64736f6c63430008040033",
  "devdoc": {
    "details": "A registrar controller for registering and renewing names at fixed cost.",
    "kind": "dev",
    "methods": {
      "owner()": {
        "details": "Returns the address of the current owner."
      },
      "renounceOwnership()": {
        "details": "Leaves the contract without owner. It will not be possible to call `onlyOwner` functions anymore. Can only be called by the current owner. NOTE: Renouncing ownership will leave the contract without an owner, thereby removing any functionality that is only available to the owner."
      },
      "transferOwnership(address)": {
        "details": "Transfers ownership of the contract to a new account (`newOwner`). Can only be called by the current owner."
      }
    },
    "version": 1
  },
  "userdoc": {
    "kind": "user",
    "methods": {},
    "version": 1
  },
  "storageLayout": {
    "storage": [
      {
        "astId": 545,
        "contract": "contracts/ethregistrar/ETHRegistrarController.sol:ETHRegistrarController",
        "label": "_owner",
        "offset": 0,
        "slot": "0",
        "type": "t_address"
      },
      {
        "astId": 10400,
        "contract": "contracts/ethregistrar/ETHRegistrarController.sol:ETHRegistrarController",
        "label": "base",
        "offset": 0,
        "slot": "1",
        "type": "t_contract(BaseRegistrarImplementation)10144"
      },
      {
        "astId": 10403,
        "contract": "contracts/ethregistrar/ETHRegistrarController.sol:ETHRegistrarController",
        "label": "prices",
        "offset": 0,
        "slot": "2",
        "type": "t_contract(PriceOracle)11263"
      },
      {
        "astId": 10405,
        "contract": "contracts/ethregistrar/ETHRegistrarController.sol:ETHRegistrarController",
        "label": "minCommitmentAge",
        "offset": 0,
        "slot": "3",
        "type": "t_uint256"
      },
      {
        "astId": 10407,
        "contract": "contracts/ethregistrar/ETHRegistrarController.sol:ETHRegistrarController",
        "label": "maxCommitmentAge",
        "offset": 0,
        "slot": "4",
        "type": "t_uint256"
      },
      {
        "astId": 10411,
        "contract": "contracts/ethregistrar/ETHRegistrarController.sol:ETHRegistrarController",
        "label": "commitments",
        "offset": 0,
        "slot": "5",
        "type": "t_mapping(t_bytes32,t_uint256)"
      }
    ],
    "types": {
      "t_address": {
        "encoding": "inplace",
        "label": "address",
        "numberOfBytes": "20"
      },
      "t_bytes32": {
        "encoding": "inplace",
        "label": "bytes32",
        "numberOfBytes": "32"
      },
      "t_contract(BaseRegistrarImplementation)10144": {
        "encoding": "inplace",
        "label": "contract BaseRegistrarImplementation",
        "numberOfBytes": "20"
      },
      "t_contract(PriceOracle)11263": {
        "encoding": "inplace",
        "label": "contract PriceOracle",
        "numberOfBytes": "20"
      },
      "t_mapping(t_bytes32,t_uint256)": {
        "encoding": "mapping",
        "key": "t_bytes32",
        "label": "mapping(bytes32 => uint256)",
        "numberOfBytes": "32",
        "value": "t_uint256"
      },
      "t_uint256": {
        "encoding": "inplace",
        "label": "uint256",
        "numberOfBytes": "32"
      }
    }
  }
}