{
  "address": "0xA2818D4350358E53B83aB12FEbC9f3aA0DC4Cd5A",
  "abi": [
    {
      "inputs": [
        {
          "internalType": "contract AggregatorInterface",
          "name": "_usdOracle",
          "type": "address"
        },
        {
          "internalType": "uint256[]",
          "name": "_rentPrices",
          "type": "uint256[]"
        }
      ],
      "stateMutability": "nonpayable",
      "type": "constructor"
    },
    {
      "anonymous": false,
      "inputs": [
        {
          "indexed": false,
          "internalType": "address",
          "name": "oracle",
          "type": "address"
        }
      ],
      "name": "OracleChanged",
      "type": "event"
    },
    {
      "anonymous": false,
      "inputs": [
        {
          "indexed": true,
          "internalType": "address",
          "name": "previousOwner",
          "type": "address"
        },
        {
          "indexed": true,
          "internalType": "address",
          "name": "newOwner",
          "type": "address"
        }
      ],
      "name": "OwnershipTransferred",
      "type": "event"
    },
    {
      "anonymous": false,
      "inputs": [
        {
          "indexed": false,
          "internalType": "uint256[]",
          "name": "prices",
          "type": "uint256[]"
        }
      ],
      "name": "RentPriceChanged",
      "type": "event"
    },
    {
      "inputs": [],
      "name": "owner",
      "outputs": [
        {
          "internalType": "address",
          "name": "",
          "type": "address"
        }
      ],
      "stateMutability": "view",
      "type": "function"
    },
    {
      "inputs": [
        {
          "internalType": "string",
          "name": "name",
          "type": "string"
        },
        {
          "internalType": "uint256",
          "name": "expires",
          "type": "uint256"
        },
        {
          "internalType": "uint256",
          "name": "duration",
          "type": "uint256"
        }
      ],
      "name": "premium",
      "outputs": [
        {
          "internalType": "uint256",
          "name": "",
          "type": "uint256"
        }
      ],
      "stateMutability": "view",
      "type": "function"
    },
    {
      "inputs": [
        {
          "internalType": "string",
          "name": "name",
          "type": "string"
        },
        {
          "internalType": "uint256",
          "name": "expires",
          "type": "uint256"
        },
        {
          "internalType": "uint256",
          "name": "duration",
          "type": "uint256"
        }
      ],
      "name": "price",
      "outputs": [
        {
          "internalType": "uint256",
          "name": "",
          "type": "uint256"
        }
      ],
      "stateMutability": "view",
      "type": "function"
    },
    {
      "inputs": [],
      "name": "renounceOwnership",
      "outputs": [],
      "stateMutability": "nonpayable",
      "type": "function"
    },
    {
      "inputs": [
        {
          "internalType": "uint256",
          "name": "",
          "type": "uint256"
        }
      ],
      "name": "rentPrices",
      "outputs": [
        {
          "internalType": "uint256",
          "name": "",
          "type": "uint256"
        }
      ],
      "stateMutability": "view",
      "type": "function"
    },
    {
      "inputs": [
        {
          "internalType": "contract AggregatorInterface",
          "name": "_usdOracle",
          "type": "address"
        }
      ],
      "name": "setOracle",
      "outputs": [],
      "stateMutability": "nonpayable",
      "type": "function"
    },
    {
      "inputs": [
        {
          "internalType": "uint256[]",
          "name": "_rentPrices",
          "type": "uint256[]"
        }
      ],
      "name": "setPrices",
      "outputs": [],
      "stateMutability": "nonpayable",
      "type": "function"
    },
    {
      "inputs": [
        {
          "internalType": "bytes4",
          "name": "interfaceID",
          "type": "bytes4"
        }
      ],
      "name": "supportsInterface",
      "outputs": [
        {
          "internalType": "bool",
          "name": "",
          "type": "bool"
        }
      ],
      "stateMutability": "view",
      "type": "function"
    },
    {
      "inputs": [
        {
          "internalType": "address",
          "name": "newOwner",
          "type": "address"
        }
      ],
      "name": "transferOwnership",
      "outputs": [],
      "stateMutability": "nonpayable",
      "type": "function"
    },
    {
      "inputs": [],
      "name": "usdOracle",
      "outputs": [
        {
          "internalType": "contract AggregatorInterface",
          "name": "",
          "type": "address"
        }
      ],
      "stateMutability": "view",
      "type": "function"
    }
  ],
  "transactionHash": "0x4ae8eaac5645fac6af0a2155fff754bc56b9d8e494698f3c8c506fe9cfcccc6a",
  "args": [
    "0x723C315685a80D898A7bC29d27f5B8d0255503e3",
    [
      1
    ]
  ],
  "solcInputHash": "189d66a3abb4fd07726a37f3a36ba4f8",
  "bytecode": "0x60806040523480156200001157600080fd5b50604051620012bc380380620012bc8339810160408190526200003491620001d5565b6200003f336200006d565b600280546001600160a01b0319166001600160a01b0384161790556200006581620000bd565b50506200031f565b600080546001600160a01b038381166001600160a01b0319831681178455604051919092169283917f8be0079c531659141344cd1fd0a4f28419497f9722a3daafe3b4186f6b6457e09190a35050565b6000546001600160a01b031633146200011c5760405162461bcd60e51b815260206004820181905260248201527f4f776e61626c653a2063616c6c6572206973206e6f7420746865206f776e6572604482015260640160405180910390fd5b8051620001319060019060208401906200016e565b507f73422d94aedd596c2d4d39f27a01033adc390a9054efaf259afefd95ef7331df81604051620001639190620002c3565b60405180910390a150565b828054828255906000526020600020908101928215620001ac579160200282015b82811115620001ac5782518255916020019190600101906200018f565b50620001ba929150620001be565b5090565b5b80821115620001ba5760008155600101620001bf565b60008060408385031215620001e8578182fd5b82516001600160a01b0381168114620001ff578283fd5b602084810151919350906001600160401b03808211156200021e578384fd5b818601915086601f83011262000232578384fd5b81518181111562000247576200024762000309565b8060051b604051601f19603f830116810181811085821117156200026f576200026f62000309565b604052828152858101935084860182860187018b10156200028e578788fd5b8795505b83861015620002b257805185526001959095019493860193860162000292565b508096505050505050509250929050565b6020808252825182820181905260009190848201906040850190845b81811015620002fd57835183529284019291840191600101620002df565b50909695505050505050565b634e487b7160e01b600052604160045260246000fd5b610f8d806200032f6000396000f3fe608060405234801561001057600080fd5b50600436106100be5760003560e01c80637adbf97311610076578063a34e35961161005b578063a34e35961461018e578063c8a4271f146101a1578063f2fde38b146101c157600080fd5b80637adbf9731461013c5780638da5cb5b1461014f57600080fd5b806350e9a715116100a757806350e9a7151461010c578063715018a61461011f57806379cf92d31461012957600080fd5b806301ffc9a7146100c357806306d5d0b6146100eb575b600080fd5b6100d66100d1366004610ccb565b6101d4565b60405190151581526020015b60405180910390f35b6100fe6100f9366004610d9d565b61026d565b6040519081526020016100e2565b6100fe61011a366004610d23565b61028e565b6101276103b6565b005b610127610137366004610bed565b610448565b61012761014a366004610bd1565b610517565b60005473ffffffffffffffffffffffffffffffffffffffff165b60405173ffffffffffffffffffffffffffffffffffffffff90911681526020016100e2565b6100fe61019c366004610d23565b61060b565b6002546101699073ffffffffffffffffffffffffffffffffffffffff1681565b6101276101cf366004610bd1565b610661565b60007fffffffff0000000000000000000000000000000000000000000000000000000082167f01ffc9a700000000000000000000000000000000000000000000000000000000148061026757507fffffffff0000000000000000000000000000000000000000000000000000000082167ff3a7928300000000000000000000000000000000000000000000000000000000145b92915050565b6001818154811061027d57600080fd5b600091825260209091200154905081565b6000806102d086868080601f01602080910402602001604051908101604052809392919081815260200183838082843760009201919091525061079192505050565b6001549091508111156102e257506001545b600081116102ef57600080fd5b60006103518460016103018186610e87565b81548110610338577f4e487b7100000000000000000000000000000000000000000000000000000000600052603260045260246000fd5b90600052602060002001546109bf90919063ffffffff16565b90506103a061039988888080601f0160208091040260200160405190810160405280939291908181526020018383808284376000920191909152508a92508991506109f89050565b8290610a01565b90506103ab81610a1d565b979650505050505050565b60005473ffffffffffffffffffffffffffffffffffffffff16331461043c576040517f08c379a000000000000000000000000000000000000000000000000000000000815260206004820181905260248201527f4f776e61626c653a2063616c6c6572206973206e6f7420746865206f776e657260448201526064015b60405180910390fd5b6104466000610ada565b565b60005473ffffffffffffffffffffffffffffffffffffffff1633146104c9576040517f08c379a000000000000000000000000000000000000000000000000000000000815260206004820181905260248201527f4f776e61626c653a2063616c6c6572206973206e6f7420746865206f776e65726044820152606401610433565b80516104dc906001906020840190610b71565b507f73422d94aedd596c2d4d39f27a01033adc390a9054efaf259afefd95ef7331df8160405161050c9190610db5565b60405180910390a150565b60005473ffffffffffffffffffffffffffffffffffffffff163314610598576040517f08c379a000000000000000000000000000000000000000000000000000000000815260206004820181905260248201527f4f776e61626c653a2063616c6c6572206973206e6f7420746865206f776e65726044820152606401610433565b600280547fffffffffffffffffffffffff00000000000000000000000000000000000000001673ffffffffffffffffffffffffffffffffffffffff83169081179091556040519081527f0e05ae75e8b926552cf6fcd744d19f422561e3ced1e426868730852702dbe4189060200161050c565b600061065861065386868080601f0160208091040260200160405190810160405280939291908181526020018383808284376000920191909152508892508791506109f89050565b610a1d565b95945050505050565b60005473ffffffffffffffffffffffffffffffffffffffff1633146106e2576040517f08c379a000000000000000000000000000000000000000000000000000000000815260206004820181905260248201527f4f776e61626c653a2063616c6c6572206973206e6f7420746865206f776e65726044820152606401610433565b73ffffffffffffffffffffffffffffffffffffffff8116610785576040517f08c379a000000000000000000000000000000000000000000000000000000000815260206004820152602660248201527f4f776e61626c653a206e6577206f776e657220697320746865207a65726f206160448201527f64647265737300000000000000000000000000000000000000000000000000006064820152608401610433565b61078e81610ada565b50565b8051600090819081905b808210156109b65760008583815181106107de577f4e487b7100000000000000000000000000000000000000000000000000000000600052603260045260246000fd5b01602001517fff000000000000000000000000000000000000000000000000000000000000001690507f80000000000000000000000000000000000000000000000000000000000000008110156108415761083a600184610df9565b92506109a3565b7fe0000000000000000000000000000000000000000000000000000000000000007fff00000000000000000000000000000000000000000000000000000000000000821610156108965761083a600284610df9565b7ff0000000000000000000000000000000000000000000000000000000000000007fff00000000000000000000000000000000000000000000000000000000000000821610156108eb5761083a600384610df9565b7ff8000000000000000000000000000000000000000000000000000000000000007fff00000000000000000000000000000000000000000000000000000000000000821610156109405761083a600484610df9565b7ffc000000000000000000000000000000000000000000000000000000000000007fff00000000000000000000000000000000000000000000000000000000000000821610156109955761083a600584610df9565b6109a0600684610df9565b92505b50826109ae81610e9e565b93505061079b565b50909392505050565b6000826109ce57506000610267565b60006109da8385610e4a565b9050826109e78583610e11565b146109f157600080fd5b9392505050565b60009392505050565b600080610a0e8385610df9565b9050838110156109f157600080fd5b600080600260009054906101000a900473ffffffffffffffffffffffffffffffffffffffff1673ffffffffffffffffffffffffffffffffffffffff166350d25bcd6040518163ffffffff1660e01b815260040160206040518083038186803b158015610a8857600080fd5b505afa158015610a9c573d6000803e3d6000fd5b505050506040513d601f19601f82011682018060405250810190610ac09190610d0b565b90506109f181610ad4856305f5e1006109bf565b90610b4f565b6000805473ffffffffffffffffffffffffffffffffffffffff8381167fffffffffffffffffffffffff0000000000000000000000000000000000000000831681178455604051919092169283917f8be0079c531659141344cd1fd0a4f28419497f9722a3daafe3b4186f6b6457e09190a35050565b6000808211610b5d57600080fd5b6000610b698385610e11565b949350505050565b828054828255906000526020600020908101928215610bac579160200282015b82811115610bac578251825591602001919060010190610b91565b50610bb8929150610bbc565b5090565b5b80821115610bb85760008155600101610bbd565b600060208284031215610be2578081fd5b81356109f181610f35565b60006020808385031215610bff578182fd5b823567ffffffffffffffff80821115610c16578384fd5b818501915085601f830112610c29578384fd5b813581811115610c3b57610c3b610f06565b8060051b6040517fffffffffffffffffffffffffffffffffffffffffffffffffffffffffffffffe0603f83011681018181108582111715610c7e57610c7e610f06565b604052828152858101935084860182860187018a1015610c9c578788fd5b8795505b83861015610cbe578035855260019590950194938601938601610ca0565b5098975050505050505050565b600060208284031215610cdc578081fd5b81357fffffffff00000000000000000000000000000000000000000000000000000000811681146109f1578182fd5b600060208284031215610d1c578081fd5b5051919050565b60008060008060608587031215610d38578283fd5b843567ffffffffffffffff80821115610d4f578485fd5b818701915087601f830112610d62578485fd5b813581811115610d70578586fd5b886020828501011115610d81578586fd5b6020928301999098509187013596604001359550909350505050565b600060208284031215610dae578081fd5b5035919050565b6020808252825182820181905260009190848201906040850190845b81811015610ded57835183529284019291840191600101610dd1565b50909695505050505050565b60008219821115610e0c57610e0c610ed7565b500190565b600082610e45577f4e487b710000000000000000000000000000000000000000000000000000000081526012600452602481fd5b500490565b6000817fffffffffffffffffffffffffffffffffffffffffffffffffffffffffffffffff0483118215151615610e8257610e82610ed7565b500290565b600082821015610e9957610e99610ed7565b500390565b60007fffffffffffffffffffffffffffffffffffffffffffffffffffffffffffffffff821415610ed057610ed0610ed7565b5060010190565b7f4e487b7100000000000000000000000000000000000000000000000000000000600052601160045260246000fd5b7f4e487b7100000000000000000000000000000000000000000000000000000000600052604160045260246000fd5b73ffffffffffffffffffffffffffffffffffffffff8116811461078e57600080fdfea2646970667358221220dd9f581cdb770bd4526adec2ff7d52a28267cf48a70e103f09db339740c227ce64736f6c63430008040033",
  "devdoc": {
    "kind": "dev",
    "methods": {
      "owner()": {
        "details": "Returns the address of the current owner."
      },
      "premium(string,uint256,uint256)": {
        "details": "Returns the pricing premium in wei."
      },
      "price(string,uint256,uint256)": {
        "details": "Returns the price to register or renew a name.",
        "params": {
          "duration": "How long the name is being registered or extended for, in seconds.",
          "expires": "When the name presently expires (0 if this is a new registration).",
          "name": "The name being registered or renewed."
        },
        "returns": {
          "_0": "The price of this renewal or registration, in wei."
        }
      },
      "renounceOwnership()": {
        "details": "Leaves the contract without owner. It will not be possible to call `onlyOwner` functions anymore. Can only be called by the current owner. NOTE: Renouncing ownership will leave the contract without an owner, thereby removing any functionality that is only available to the owner."
      },
      "setOracle(address)": {
        "details": "Sets the price oracle address",
        "params": {
          "_usdOracle": "The address of the price oracle to use."
        }
      },
      "setPrices(uint256[])": {
        "details": "Sets rent prices.",
        "params": {
          "_rentPrices": "The price array. Each element corresponds to a specific                    name length; names longer than the length of the array                    default to the price of the last element. Values are                    in base price units, equal to one attodollar (1e-18                    dollar) each."
        }
      },
      "transferOwnership(address)": {
        "details": "Transfers ownership of the contract to a new account (`newOwner`). Can only be called by the current owner."
      }
    },
    "version": 1
  },
  "userdoc": {
    "kind": "user",
    "methods": {},
    "version": 1
  },
  "storageLayout": {
    "storage": [
      {
        "astId": 545,
        "contract": "contracts/ethregistrar/StablePriceOracle.sol:StablePriceOracle",
        "label": "_owner",
        "offset": 0,
        "slot": "0",
        "type": "t_address"
      },
      {
        "astId": 11420,
        "contract": "contracts/ethregistrar/StablePriceOracle.sol:StablePriceOracle",
        "label": "rentPrices",
        "offset": 0,
        "slot": "1",
        "type": "t_array(t_uint256)dyn_storage"
      },
      {
        "astId": 11423,
        "contract": "contracts/ethregistrar/StablePriceOracle.sol:StablePriceOracle",
        "label": "usdOracle",
        "offset": 0,
        "slot": "2",
        "type": "t_contract(AggregatorInterface)11409"
      }
    ],
    "types": {
      "t_address": {
        "encoding": "inplace",
        "label": "address",
        "numberOfBytes": "20"
      },
      "t_array(t_uint256)dyn_storage": {
        "base": "t_uint256",
        "encoding": "dynamic_array",
        "label": "uint256[]",
        "numberOfBytes": "32"
      },
      "t_contract(AggregatorInterface)11409": {
        "encoding": "inplace",
        "label": "contract AggregatorInterface",
        "numberOfBytes": "20"
      },
      "t_uint256": {
        "encoding": "inplace",
        "label": "uint256",
        "numberOfBytes": "32"
      }
    }
  }
}